{
  "contractName": "SimpleBank",
  "abi": [
    {
      "inputs": [],
      "stateMutability": "nonpayable",
      "type": "constructor"
    },
    {
      "anonymous": false,
      "inputs": [
        {
          "indexed": false,
          "internalType": "address",
          "name": "accountAddress",
          "type": "address"
        },
        {
          "indexed": false,
          "internalType": "uint256",
          "name": "amount",
          "type": "uint256"
        }
      ],
      "name": "LogDepositMade",
      "type": "event"
    },
    {
      "anonymous": false,
      "inputs": [
        {
          "indexed": false,
          "internalType": "address",
          "name": "accountAddress",
          "type": "address"
        }
      ],
      "name": "LogEnrolled",
      "type": "event"
    },
    {
      "anonymous": false,
      "inputs": [
        {
          "indexed": false,
          "internalType": "uint256",
          "name": "withdrawAmount",
          "type": "uint256"
        },
        {
          "indexed": false,
          "internalType": "uint256",
          "name": "customerBalance",
          "type": "uint256"
        },
        {
          "indexed": false,
          "internalType": "string",
          "name": "message",
          "type": "string"
        }
      ],
      "name": "LogInsuffficientBalance",
      "type": "event"
    },
    {
      "anonymous": false,
      "inputs": [
        {
          "indexed": false,
          "internalType": "address",
          "name": "accountAddress",
          "type": "address"
        },
        {
          "indexed": false,
          "internalType": "uint256",
          "name": "withdrawAmount",
          "type": "uint256"
        },
        {
          "indexed": false,
          "internalType": "uint256",
          "name": "newBalance",
          "type": "uint256"
        }
      ],
      "name": "LogWithdrawal",
      "type": "event"
    },
    {
      "stateMutability": "payable",
      "type": "fallback",
      "payable": true
    },
    {
      "inputs": [
        {
          "internalType": "address",
          "name": "",
          "type": "address"
        }
      ],
      "name": "enrolled",
      "outputs": [
        {
          "internalType": "bool",
          "name": "",
          "type": "bool"
        }
      ],
      "stateMutability": "view",
      "type": "function",
      "constant": true
    },
    {
      "inputs": [],
      "name": "owner",
      "outputs": [
        {
          "internalType": "address",
          "name": "",
          "type": "address"
        }
      ],
      "stateMutability": "view",
      "type": "function",
      "constant": true
    },
    {
      "inputs": [],
      "name": "getBalance",
      "outputs": [
        {
          "internalType": "uint256",
          "name": "",
          "type": "uint256"
        }
      ],
      "stateMutability": "view",
      "type": "function",
      "constant": true
    },
    {
      "inputs": [],
      "name": "enroll",
      "outputs": [
        {
          "internalType": "bool",
          "name": "",
          "type": "bool"
        }
      ],
      "stateMutability": "nonpayable",
      "type": "function"
    },
    {
      "inputs": [],
      "name": "deposit",
      "outputs": [
        {
          "internalType": "uint256",
          "name": "",
          "type": "uint256"
        }
      ],
      "stateMutability": "payable",
      "type": "function",
      "payable": true
    },
    {
      "inputs": [
        {
          "internalType": "uint256",
          "name": "withdrawAmount",
          "type": "uint256"
        }
      ],
      "name": "withdraw",
      "outputs": [
        {
          "internalType": "uint256",
          "name": "",
          "type": "uint256"
        }
      ],
      "stateMutability": "nonpayable",
      "type": "function"
    }
  ],
  "bytecode": "0x608060405234801561001057600080fd5b5033600460006101000a81548173ffffffffffffffffffffffffffffffffffffffff021916908373ffffffffffffffffffffffffffffffffffffffff1602179055506107d7806100616000396000f3fe6080604052600436106100595760003560e01c806310eb0e0e1461005f57806312065fe0146100c65780632e1a7d4d146100f15780638da5cb5b14610140578063d0e30db014610181578063e65f2a7e1461019f5761005a565b5b600080fd5b34801561006b57600080fd5b506100ae6004803603602081101561008257600080fd5b81019080803573ffffffffffffffffffffffffffffffffffffffff1690602001909291905050506101cc565b60405180821515815260200191505060405180910390f35b3480156100d257600080fd5b506100db6101ec565b6040518082815260200191505060405180910390f35b3480156100fd57600080fd5b5061012a6004803603602081101561011457600080fd5b8101908080359060200190929190505050610236565b6040518082815260200191505060405180910390f35b34801561014c57600080fd5b5061015561045b565b604051808273ffffffffffffffffffffffffffffffffffffffff16815260200191505060405180910390f35b610189610481565b6040518082815260200191505060405180910390f35b3480156101ab57600080fd5b506101b4610615565b60405180821515815260200191505060405180910390f35b60036020528060005260406000206000915054906101000a900460ff1681565b6000600160003373ffffffffffffffffffffffffffffffffffffffff1673ffffffffffffffffffffffffffffffffffffffff16815260200190815260200160002060010154905090565b6000803390506000600160008373ffffffffffffffffffffffffffffffffffffffff1673ffffffffffffffffffffffffffffffffffffffff16815260200190815260200160002090508060010154841115610374577e7d49998496c027d081286b0e8388e75e2146f225fa0bebcf924e72e82783928482600101546040518083815260200182815260200180602001828103825260148152602001807f696e73756666696369656e742062616c616e6365000000000000000000000000815250602001935050505060405180910390a16040517f08c379a00000000000000000000000000000000000000000000000000000000081526004018080602001828103825260148152602001807f696e73756666696369656e742062616c616e636500000000000000000000000081525060200191505060405180910390fd5b8381600101600082825403925050819055508173ffffffffffffffffffffffffffffffffffffffff168460405180600001905060006040518083038185875af1925050503d80600081146103e4576040519150601f19603f3d011682016040523d82523d6000602084013e6103e9565b606091505b5050507ff9226daf630542048a23086c6af599511aac100ec8f532793cc9697d061bed7e82858360010154604051808473ffffffffffffffffffffffffffffffffffffffff168152602001838152602001828152602001935050505060405180910390a1806001015492505050919050565b600460009054906101000a900473ffffffffffffffffffffffffffffffffffffffff1681565b6000336000600160008373ffffffffffffffffffffffffffffffffffffffff1673ffffffffffffffffffffffffffffffffffffffff1681526020019081526020016000209050600115158160000160009054906101000a900460ff16151514610552576040517f08c379a000000000000000000000000000000000000000000000000000000000815260040180806020018281038252601c8152602001807f637573746f6d6572206973206e6f742079657420656e726f6c6c65640000000081525060200191505060405180910390fd5b600033905060003490506000600160008473ffffffffffffffffffffffffffffffffffffffff1673ffffffffffffffffffffffffffffffffffffffff16815260200190815260200160002090508181600101600082825401925050819055507fa8126f7572bb1fdeae5b5aa9ec126438b91f658a07873f009d041ae690f3a1938383604051808373ffffffffffffffffffffffffffffffffffffffff1681526020018281526020019250505060405180910390a180600101549550505050505090565b600080339050610623610785565b600160008373ffffffffffffffffffffffffffffffffffffffff1673ffffffffffffffffffffffffffffffffffffffff1681526020019081526020016000206040518060400160405290816000820160009054906101000a900460ff1615151515815260200160018201548152505090506000151581600001511515141561072f576001816000019015159081151581525050600081602001818152505080600160008473ffffffffffffffffffffffffffffffffffffffff1673ffffffffffffffffffffffffffffffffffffffff16815260200190815260200160002060008201518160000160006101000a81548160ff021916908315150217905550602082015181600101559050505b7f990c442e6adb818b8fa7db3cf1023decd07f7b66e5306928c7ed527d974192bb82604051808273ffffffffffffffffffffffffffffffffffffffff16815260200191505060405180910390a160019250505090565b604051806040016040528060001515815260200160008152509056fea2646970667358221220d4500bda91649eb322053891288af6337d9364dccc13435b71fea976b7c186aa64736f6c634300060c0033",
  "immutableReferences": {},
  "source": "/*\r\n    This exercise has been updated to use Solidity version 0.6.12\r\n    Breaking changes from 0.5 to 0.6 can be found here: \r\n    https://solidity.readthedocs.io/en/v0.6.12/060-breaking-changes.html\r\n*/\r\n\r\npragma solidity ^0.6.12; //^0.6.12\r\n\r\ncontract SimpleBank {\r\n\r\n    //\r\n    // State variables\r\n    //\r\n    uint balance;\r\n    mapping(address => Customer) customers;\r\n    \r\n    struct Customer {\r\n        bool enrolledStatus;\r\n        uint balance;\r\n    }\r\n    \r\n    \r\n    /* Fill in the keyword. Hint: We want to protect our users balance from other contracts*/\r\n    mapping (address => uint) private balances;\r\n    \r\n    /* Fill in the keyword. We want to create a getter function and allow contracts to be able to see if a user is enrolled.  */\r\n    mapping (address => bool) public enrolled;\r\n\r\n    /* Let's make sure everyone knows who owns the bank. Use the appropriate keyword for this*/\r\n    address public owner;\r\n    \r\n    //\r\n    // Events - publicize actions to external listeners\r\n    //\r\n    \r\n    /* Add an argument for this event, an accountAddress */\r\n    event LogEnrolled(address accountAddress);\r\n\r\n    /* Add 2 arguments for this event, an accountAddress and an amount */\r\n    event LogDepositMade(address accountAddress, uint amount);\r\n\r\n    /* Create an event called LogWithdrawal */\r\n    /* Add 3 arguments for this event, an accountAddress, withdrawAmount and a newBalance */\r\n    event LogWithdrawal(address accountAddress, uint withdrawAmount, uint newBalance);\r\n    \r\n    event LogInsuffficientBalance(uint withdrawAmount, uint customerBalance, string message);\r\n\r\n    modifier isEnrolled(address customerAddress) {\r\n        Customer storage _customer = customers[customerAddress];\r\n        require(_customer.enrolledStatus == true, \"customer is not yet enrolled\");\r\n        _;\r\n    }\r\n\r\n    //\r\n    // Functions\r\n    //\r\n\r\n    /* Use the appropriate global variable to get the sender of the transaction */\r\n    constructor() public {\r\n        /* Set the owner to the creator of this contract */\r\n        owner = msg.sender;\r\n    }\r\n\r\n    // Fallback function - Called if other functions don't match call or\r\n    // sent ether without data\r\n    // Typically, called when invalid data is sent\r\n    // Added so ether sent to this contract is reverted if the contract fails\r\n    // otherwise, the sender's money is transferred to contract\r\n    fallback() external payable {\r\n        revert();\r\n    }\r\n\r\n    /// @notice Get balance\r\n    /// @return The balance of the user\r\n    // A SPECIAL KEYWORD prevents function from editing state variables;\r\n    // allows function to run locally/off blockchain\r\n    function getBalance() public view returns (uint) {\r\n        /* Get the balance of the sender of this transaction */\r\n        //return msg.sender.balance;\r\n        return customers[msg.sender].balance;\r\n    }\r\n\r\n    /// @notice Enroll a customer with the bank\r\n    /// @return The users enrolled status\r\n    // Emit the appropriate event\r\n    function enroll() public returns (bool){\r\n        address customerAddress = msg.sender;\r\n        Customer memory _customer = customers[customerAddress];\r\n                \r\n        if(_customer.enrolledStatus == false){            \r\n            _customer.enrolledStatus = true;\r\n            _customer.balance = 0;\r\n            customers[customerAddress] = _customer;                \r\n        }   \r\n        emit LogEnrolled(customerAddress);\r\n        return true;    \r\n    }\r\n\r\n    /// @notice Deposit ether into bank\r\n    /// @return The balance of the user after the deposit is made\r\n    // Add the appropriate keyword so that this function can receive ether\r\n    // Use the appropriate global variables to get the transaction sender and value\r\n    // Emit the appropriate event    \r\n    // Users should be enrolled before they can make deposits\r\n    function deposit() public payable isEnrolled(msg.sender) returns (uint) {\r\n        address customerAddress = msg.sender;\r\n        uint depositAmount = msg.value;\r\n        /* Add the amount to the user's balance, call the event associated with a deposit,\r\n          then return the balance of the user */\r\n        Customer storage _customer = customers[customerAddress];\r\n        _customer.balance += depositAmount;\r\n        \r\n        emit LogDepositMade(customerAddress, depositAmount);\r\n        return _customer.balance;\r\n    }\r\n\r\n    /// @notice Withdraw ether from bank\r\n    /// @dev This does not return any excess ether sent to it\r\n    /// @param withdrawAmount amount you want to withdraw\r\n    /// @return The balance remaining for the user\r\n    // Emit the appropriate event    \r\n    function withdraw(uint withdrawAmount) public returns (uint) {\r\n        /* If the sender's balance is at least the amount they want to withdraw,\r\n           Subtract the amount from the sender's balance, and try to send that amount of ether\r\n           to the user attempting to withdraw. \r\n           return the user's balance.*/\r\n        address customerAddress = msg.sender;\r\n        Customer storage _customer = customers[customerAddress];\r\n        \r\n        if(withdrawAmount > _customer.balance){\r\n            emit LogInsuffficientBalance(withdrawAmount, _customer.balance, 'insufficient balance');\r\n            revert('insufficient balance');\r\n            return _customer.balance;\r\n        }else{\r\n            _customer.balance -= withdrawAmount;\r\n            customerAddress.call{value: withdrawAmount}('');\r\n            emit LogWithdrawal(customerAddress, withdrawAmount, _customer.balance);\r\n            return _customer.balance;\r\n        }        \r\n    }\r\n}",
  "sourcePath": "C:/Users/USER/Desktop/BLOCKCHAIN/CONSENSYS/simple-bank-exercise-Opyet/contracts/SimpleBank.sol",
  "compiler": {
    "name": "solc",
    "version": "0.6.12+commit.27d51765.Emscripten.clang"
  },
  "schemaVersion": "3.3.1",
  "updatedAt": "2020-11-14T22:37:41.844Z",
  "networkType": "ethereum",
  "devdoc": {
    "kind": "dev",
    "methods": {
      "deposit()": {
        "returns": {
          "_0": "The balance of the user after the deposit is made"
        }
      },
      "enroll()": {
        "returns": {
          "_0": "The users enrolled status"
        }
      },
      "getBalance()": {
        "returns": {
          "_0": "The balance of the user"
        }
      },
      "withdraw(uint256)": {
        "details": "This does not return any excess ether sent to it",
        "params": {
          "withdrawAmount": "amount you want to withdraw"
        },
        "returns": {
          "_0": "The balance remaining for the user"
        }
      }
    },
    "version": 1
  },
  "userdoc": {
    "kind": "user",
    "methods": {
      "deposit()": {
        "notice": "Deposit ether into bank"
      },
      "enroll()": {
        "notice": "Enroll a customer with the bank"
      },
      "getBalance()": {
        "notice": "Get balance"
      },
      "withdraw(uint256)": {
        "notice": "Withdraw ether from bank"
      }
    },
    "version": 1
  }
}